:020000020000FC
:100000000FEF0DBF08E00EBF3F065B4F666D7D072B
:100010007F67777C585E79710E945E0000E80093EC
:10002000610007E00093610040E01FE017B910E2B3
:1000300014B97FE77AB930E038B940E050E0E8E041
:10004000F0E0749148B916B134990E94410026B18C
:1000500035990E94480005B301FFF4CFA99A439552
:10006000403149F02D980E943600ECCF852F8395C2
:10007000481719F0E7CF40E0E5CF2D9A40E07BB973
:10008000E1CF14E61A95F1F73499FBCF0E944F00A7
:1000900024E62A95F1F73599FBCF0E9456005F3090
:1000A00061F05395319674917BB9CCCF503029F0E3
:1000B0005A95319774917BB9C5CFC4CF00E006BD86
:0E00C0000CE907BD02E004BD05E005BD089592
:00000001FF
