:020000020000FC
:100000000FEF0DBF08E00EBF3F065B4F666D7D072B
:100010007F67777C585E79710E94600000E80093EA
:10002000610007E00093610040E01FE017B910E2B3
:1000300014B97FE77AB930E038B940E050E0E8E041
:10004000F0E074917BB948B916B134990E943F0031
:1000500026B135990E94460005B301FFF3CFA99A56
:100060004395403139F02D980E943700EBCF45176A
:1000700019F0E8CF40E0E6CF2D9A40E0E3CF14E658
:100080001A95F1F73499FBCF0E944D0024E62A958A
:10009000F1F73599FBCF0E945600349B08955F30ED
:1000A00071F05395319674917BB9CCCF359B0895FF
:1000B000503029F05A95319774917BB9C3CFC2CF94
:1000C00000E006BD0CE907BD02E004BD05E005BD8A
:0200D000089591
:00000001FF
