:020000020000FC
:100000000FEF0DBF08E00EBF3F065B4F666D7D072B
:100010007F67777C585E79710E94640000E80093E6
:10002000610007E00093610040E01FE017B910E2B3
:1000300014B97FE77AB930E038B940E050E0E8E041
:10004000F0E074917BB916B134990E94470026B153
:1000500035990E944E0005B301FFF4CFA99A48B923
:100060004395403141F00E943600ECCF852F8395B7
:10007000481719F0E7CF40E0E5CF913021F091E04B
:100080002D9A40E0DFCF90E02D9840E0DBCF14E6E2
:100090001A95F1F73499FBCF0E94550024E62A9572
:1000A000F1F73599FBCF0E945C005F3061F053950A
:1000B000319674917BB9C6CF503029F05A9531975B
:1000C00074917BB9BFCFBECF00E006BD0CE907BD80
:0A00D00002E004BD05E005BD08953F
:00000001FF
